:1000000045C0000060C000005EC000005CC0000091
:100010005AC0000058C0000056C0000054C0000084
:1000200052C0000050C000004EC000004CC0000094
:100030004AC0000048C0000046C0000044C00000A4
:1000400042C0000040C000003EC000003CC00000B4
:100050003AC0000038C0000036C0000034C00000C4
:1000600032C0000030C000002EC000002CC00000D4
:100070002AC0000028C0000026C0000024C00000E4
:1000800022C0000020C000001EC0000011241FBEBE
:10009000CFEFD0E4DEBFCDBF12E0A0E0B1E0E6E3F9
:1000A000F3E000E00BBF02C007900D92AA3EB1073B
:1000B000D9F722E0AAEEB2E001C01D92AC3EB20731
:1000C000E1F731D136C19CCF0895089508951816EF
:1000D000190614F4459A08954598089518161906B6
:1000E00014F4439A0895439808950F931F93CF9360
:1000F000C82FCB018A014198EADFC801EFDFC2B9FE
:1001000088E290E0E3DF409880EA90E0DFDF409A09
:10011000CF911F910F91089541E050E060E070E0B1
:10012000E4CF40E050E060E070E0DFCFCF93DF93BA
:10013000EC019FEF91B997B9409A44988AE090E01A
:10014000C4DF449A81E090E0BFDF82EE90E0E4DF1C
:1001500082EE90E0E6DF8EEE90E0DEDF8EEE90E065
:10016000E0DF84EA90E0D8DF84EA90E0DADF89EA31
:1001700090E0D2DF89EA90E0D4DF80EC90E0CCDF41
:1001800080EC90E0CEDF81EA90E0C6DFCD2B19F461
:1001900080EA90E002C081EA90E0C3DF8FEA90E05D
:1001A000BBDF8FEA90E0DF91CF91BBCF41E050E021
:1001B00061E070E09ACF40E050E061E070E095CF00
:1001C000EF92FF920F931F93CF93DF9382EE90E015
:1001D000A3DF82EE90E0A5DFC0E0D0E07E0188EBF7
:1001E000E82AC70199DF83E190E096DF0DE310E094
:1001F00080E090E0DBDF01501109D1F7C70191DF0A
:1002000080E090E08EDF0DE310E080E090E0D3DF4F
:1002100001501109D1F72196C430D105F9F6DF91CB
:10022000CF911F910F91FF90EF900895CF92DF92A1
:10023000EF92FF920F931F93CF93DF938C01C0E057
:10024000D0E082EE90E068DFCE01886B65DF83E16D
:1002500090E062DF68018DE3C80ED11C7801F701E0
:1002600081917F0190E0A2DFEC14FD04C1F721969B
:1002700006581F4FC430D10521F7DF91CF911F9150
:100280000F91FF90EF90DF90CF90089522E031E042
:1002900080E090E0F901E80FF91F108201968A379B
:1002A0009105C1F726583F4F82E02A3E380781F773
:1002B00008958091EA029091EB0201969093EB02EF
:1002C0008093EA0220910001309101018217930787
:1002D00024F01092EB021092EA028091EA029091CF
:1002E000EB028E5F9E4FFC01E458FF4F2FEF2083FF
:1002F000319620833196208331964AEA40833196A5
:1003000035E53083319640833196308331962083B2
:100310003196208331962083089582E091E086CF44
:10032000B5DFC7DFFACF81E090E000DF49DFF8DF1B
:06033000FECFF894FFCFA0
:100336003C00FF01010101C1E1B1111D1D7F7FFFDD
:10034600FFFFFFFFFFFFFFFFFFFFFFFFFFFFFDFDBB
:10035600F9B1F1E181010101C1C1C1C1C1C1C1C18F
:10036600C1C1C1C1C1C1C1C1C1C1C1C1C1C1C1C177
:10037600C1C1C1C1C1C1C1C1C1C1C1C1C1C1C1C167
:10038600C1C1C1C1C1C1C1C1C1C1C1C1C1C1C1C157
:10039600C1C1C1C1C1C1C1C1C1C1C1C1C1C1C1C147
:1003A600C1C1C1C1C1C1C1C1C1C1C1FFFFE07C7F23
:1003B6007FFFFFFFFFFFFFFFF86F6F0707060000D5
:1003C60003030F3F0707070303070F3B1380802331
:1003D6009EF8F8F8FCFEFEFEFC0000008080E0F8C7
:1003E600FCFEFEFEFC00000060F0F8F87C3E1E1EDF
:1003F6001E1E1E1E1E3E3E7EFCF8F0E0C080000063
:100406000000000000000080E0F8FCFEFEFEFEFC9E
:10041600001C3E3E3E3E3E3E3EFEFEFEFEFE3E3E96
:100426003E3E3E3E1CFFFF077CE080001F3FFFFF75
:10043600FFFF0F3038000000000000000000000041
:10044600000000000080E0F0FCFFFF3F0F03FFFF0D
:10045600FFFFFFF8FEFF7F7F1F0FFFFFFFFFFF007D
:1004660000000000000000183C7E7E7E7E7E7E3C02
:100476003C18000001FFFFFFFF000080E0F0FCFEDB
:10048600FF7F1F07FFFFFFFFFFFF000000000000C8
:10049600000000FFFFFFFFFF00000000000000FF5C
:1004A600FF8080808083868C98B0B0E0C0C080805A
:1004B600808080808080C0C0C0C0C0E0F8FCFFFFA4
:1004C600BF8F878180808080FFFFFFFFFF9F838033
:1004D60080808080FFFFFFFFFF808080868F9FBF28
:1004E600FEFCF8F0F0F0F0F0F0F8F8FCFEBF9F8F9D
:1004F60087E3F9FCFFFFBF9F878180808080FFFF35
:10050600FFFFFFFF808080808080808080FFFFFF6C
:0A051600FFFF80808080808080FF5E
:00000001FF
