:0400000002003D328B
:01000B0032C2
:0100130032BA
:01001B0032B2
:0100230032AA
:1000300075880075890075D00075A80022113031CF
:100040003E11A21145319D900100C083C0829007EE
:1000500000C083C0827C20D082D083740093A3A888
:1000600083A982D082D083F0A3AA83AB82EAC0E0C6
:10007000EBC0E0E8C0E0E9C0E0DCDCD082D083D0B7
:1000800082D08378E2318978B93189781331897CDB
:10009000007B187583018C82E0F831930CDBF480CF
:1000A000FE22D28F2288838982F022F022D2B68863
:1000B000A08980C2B37590FFF59000C2B60000D24F
:1000C000B6D2B3F590007590002211A522888389DD
:1000D00082E022E022D2B6C2B3C2B788A0898000F3
:1000E000E590007400D2B7D2B3C2B62211CD22FF80
:1000F0007E047DFA7C92000000000000DCF8DDF454
:10010000DEF0DFEC22FF7E92000000000000DEF84F
:10011000DFF422FF7E01DEFEDFFA22FF7E02000016
:1001200000DEFBDFF72275900022C2D3C2D422D2B8
:10013000D3C2D422C2D3D2D422D2D3D2D42275B045
:1001400001740C311BD2B47402310578E23189316B
:100150008E78EE3189318E78A43189318E78A9314B
:1001600089318E78C03189318E78A13189318E788C
:10017000AF3189318E31262289B0889074283113AD
:10018000C2B074A03113D2B022791D317822791512
:10019000317822793D31782279353178227C0474A6
:1001A000049CFAEA44B8F831897813318978007BE5
:1001B0003D3193DBFCEA44B8F8318E7800318E781B
:0C01C000007B3D3198DBFCDCD6312622B0
:1007000000FFFF0303FFFF0000FFFF700EFFFF006D
:1007100000FFFFC3C3E7E70000CFEF1D1DFFFF0091
:010720004098
:00000001FF
